{
  "transactions": [
    {
      "hash": "0xa0e7e7d900f954bd36b617b9b5712a3f29811ce2b7058474d9dee62888150335",
      "transactionType": "CALL",
      "contractName": null,
      "contractAddress": "0xa97e24478312cf237041dd4571618bd6fbaa7153",
      "function": "grantManufacturerRole(address)",
      "arguments": [
        "0x36542e8ab1B2babc8Bb34CbA9aF2D52de07E3FfD"
      ],
      "transaction": {
        "from": "0x36542e8ab1b2babc8bb34cba9af2d52de07e3ffd",
        "to": "0xa97e24478312cf237041dd4571618bd6fbaa7153",
        "gas": "0x1189f",
        "value": "0x0",
        "input": "0x55c4281e00000000000000000000000036542e8ab1b2babc8bb34cba9af2d52de07e3ffd",
        "nonce": "0xf",
        "chainId": "0xaa36a7"
      },
      "additionalContracts": [],
      "isFixedGasLimit": false
    },
    {
      "hash": "0xd53b1170765bc1f64d96e07774fafb6f0498e8928fa6f0c724b729d01b4d10f8",
      "transactionType": "CALL",
      "contractName": null,
      "contractAddress": "0xa97e24478312cf237041dd4571618bd6fbaa7153",
      "function": "grantManufacturerRole(address)",
      "arguments": [
        "0x36542e8ab1B2babc8Bb34CbA9aF2D52de07E3FfD"
      ],
      "transaction": {
        "from": "0x36542e8ab1b2babc8bb34cba9af2d52de07e3ffd",
        "to": "0xa97e24478312cf237041dd4571618bd6fbaa7153",
        "gas": "0x9936",
        "value": "0x0",
        "input": "0x55c4281e00000000000000000000000036542e8ab1b2babc8bb34cba9af2d52de07e3ffd",
        "nonce": "0x10",
        "chainId": "0xaa36a7"
      },
      "additionalContracts": [],
      "isFixedGasLimit": false
    },
    {
      "hash": "0x6191e6837179ae85c4b57f4c285a9fd3ca2badf450ea6c80584ef037453923e6",
      "transactionType": "CALL",
      "contractName": null,
      "contractAddress": "0xa97e24478312cf237041dd4571618bd6fbaa7153",
      "function": "grantDistributorRole(address)",
      "arguments": [
        "0x36542e8ab1B2babc8Bb34CbA9aF2D52de07E3FfD"
      ],
      "transaction": {
        "from": "0x36542e8ab1b2babc8bb34cba9af2d52de07e3ffd",
        "to": "0xa97e24478312cf237041dd4571618bd6fbaa7153",
        "gas": "0x11921",
        "value": "0x0",
        "input": "0x8bba2a0a00000000000000000000000036542e8ab1b2babc8bb34cba9af2d52de07e3ffd",
        "nonce": "0x11",
        "chainId": "0xaa36a7"
      },
      "additionalContracts": [],
      "isFixedGasLimit": false
    },
    {
      "hash": "0xb96a73248884c0794718b39cb1a5626b162407b3aae44c5acdf561ef5ef5b3ae",
      "transactionType": "CALL",
      "contractName": null,
      "contractAddress": "0xa97e24478312cf237041dd4571618bd6fbaa7153",
      "function": "grantRetailerRole(address)",
      "arguments": [
        "0x36542e8ab1B2babc8Bb34CbA9aF2D52de07E3FfD"
      ],
      "transaction": {
        "from": "0x36542e8ab1b2babc8bb34cba9af2d52de07e3ffd",
        "to": "0xa97e24478312cf237041dd4571618bd6fbaa7153",
        "gas": "0x1099d",
        "value": "0x0",
        "input": "0xf9f806e100000000000000000000000036542e8ab1b2babc8bb34cba9af2d52de07e3ffd",
        "nonce": "0x12",
        "chainId": "0xaa36a7"
      },
      "additionalContracts": [],
      "isFixedGasLimit": false
    },
    {
      "hash": "0x41e74efc5c20bc9ae0301682c4ced6b582c0336f610068c420801ac64f90ee82",
      "transactionType": "CALL",
      "contractName": null,
      "contractAddress": "0xa97e24478312cf237041dd4571618bd6fbaa7153",
      "function": "grantCustomsRole(address)",
      "arguments": [
        "0x36542e8ab1B2babc8Bb34CbA9aF2D52de07E3FfD"
      ],
      "transaction": {
        "from": "0x36542e8ab1b2babc8bb34cba9af2d52de07e3ffd",
        "to": "0xa97e24478312cf237041dd4571618bd6fbaa7153",
        "gas": "0x9111",
        "value": "0x0",
        "input": "0x0ea5ef3d00000000000000000000000036542e8ab1b2babc8bb34cba9af2d52de07e3ffd",
        "nonce": "0x13",
        "chainId": "0xaa36a7"
      },
      "additionalContracts": [],
      "isFixedGasLimit": false
    }
  ],
  "receipts": [
    {
      "status": "0x1",
      "cumulativeGasUsed": "0xac5a25",
      "logs": [
        {
          "address": "0xa97e24478312cf237041dd4571618bd6fbaa7153",
          "topics": [
            "0x2f8788117e7eff1d82e926ec794901d17c78024a50270940304540a733656f0d",
            "0xeefb95e842a3287179d933b4460be539a1d5af11aa8b325bb45c5c8dc92de4ed",
            "0x00000000000000000000000036542e8ab1b2babc8bb34cba9af2d52de07e3ffd",
            "0x00000000000000000000000036542e8ab1b2babc8bb34cba9af2d52de07e3ffd"
          ],
          "data": "0x",
          "blockHash": "0x1099adf56e8b325a16e1d21827ffd73dfe205bc685ef9bf7ffaa1116b5ccb19b",
          "blockNumber": "0x886865",
          "transactionHash": "0xa0e7e7d900f954bd36b617b9b5712a3f29811ce2b7058474d9dee62888150335",
          "transactionIndex": "0x6b",
          "logIndex": "0xd7",
          "removed": false
        }
      ],
      "logsBloom": "0x00000004000000000000002000000000000000000000000000000000000000000000000000000000000000200000000000000000000000000000000000000000000000000000000000000000000000000000000000000000000000000000000000000000000000002000000000000000000000000000000000000000000000000000000002000000000000000000000000000000000000000000000000400000000000000000000000000000000000000000000000000000001000000000000000000000000000000000000000000000000000000000000100000000000000000000000000000000000000000000000400000000000000080400400000000000",
      "type": "0x2",
      "transactionHash": "0xa0e7e7d900f954bd36b617b9b5712a3f29811ce2b7058474d9dee62888150335",
      "transactionIndex": "0x6b",
      "blockHash": "0x1099adf56e8b325a16e1d21827ffd73dfe205bc685ef9bf7ffaa1116b5ccb19b",
      "blockNumber": "0x886865",
      "gasUsed": "0xbfe1",
      "effectiveGasPrice": "0x9e90a17",
      "from": "0x36542e8ab1b2babc8bb34cba9af2d52de07e3ffd",
      "to": "0xa97e24478312cf237041dd4571618bd6fbaa7153",
      "contractAddress": null
    },
    {
      "status": "0x1",
      "cumulativeGasUsed": "0xacc2e8",
      "logs": [],
      "logsBloom": "0x00000000000000000000000000000000000000000000000000000000000000000000000000000000000000000000000000000000000000000000000000000000000000000000000000000000000000000000000000000000000000000000000000000000000000000000000000000000000000000000000000000000000000000000000000000000000000000000000000000000000000000000000000000000000000000000000000000000000000000000000000000000000000000000000000000000000000000000000000000000000000000000000000000000000000000000000000000000000000000000000000000000000000000000000000000000",
      "type": "0x2",
      "transactionHash": "0xd53b1170765bc1f64d96e07774fafb6f0498e8928fa6f0c724b729d01b4d10f8",
      "transactionIndex": "0x6c",
      "blockHash": "0x1099adf56e8b325a16e1d21827ffd73dfe205bc685ef9bf7ffaa1116b5ccb19b",
      "blockNumber": "0x886865",
      "gasUsed": "0x68c3",
      "effectiveGasPrice": "0x9e90a17",
      "from": "0x36542e8ab1b2babc8bb34cba9af2d52de07e3ffd",
      "to": "0xa97e24478312cf237041dd4571618bd6fbaa7153",
      "contractAddress": null
    },
    {
      "status": "0x1",
      "cumulativeGasUsed": "0xad8322",
      "logs": [
        {
          "address": "0xa97e24478312cf237041dd4571618bd6fbaa7153",
          "topics": [
            "0x2f8788117e7eff1d82e926ec794901d17c78024a50270940304540a733656f0d",
            "0xfbd454f36a7e1a388bd6fc3ab10d434aa4578f811acbbcf33afb1c697486313c",
            "0x00000000000000000000000036542e8ab1b2babc8bb34cba9af2d52de07e3ffd",
            "0x00000000000000000000000036542e8ab1b2babc8bb34cba9af2d52de07e3ffd"
          ],
          "data": "0x",
          "blockHash": "0x1099adf56e8b325a16e1d21827ffd73dfe205bc685ef9bf7ffaa1116b5ccb19b",
          "blockNumber": "0x886865",
          "transactionHash": "0x6191e6837179ae85c4b57f4c285a9fd3ca2badf450ea6c80584ef037453923e6",
          "transactionIndex": "0x6d",
          "logIndex": "0xd8",
          "removed": false
        }
      ],
      "logsBloom": "0x00000004000000000000000000000000000000000000000000000000000000000000000000000000000000000000000000000000000000000000000000000000000000000000000000008000000000000000000000000000000000000000000000000000000000002000000000000000000000000000000000000000000000000000000002000000000000000000000080000000000000000000000000400000000000000000000000000000000000000000000000000000001000000000000000000000000000000000000000000004000000000000000100000000000000000000000000000000000000000000000400000000000000000400400000000000",
      "type": "0x2",
      "transactionHash": "0x6191e6837179ae85c4b57f4c285a9fd3ca2badf450ea6c80584ef037453923e6",
      "transactionIndex": "0x6d",
      "blockHash": "0x1099adf56e8b325a16e1d21827ffd73dfe205bc685ef9bf7ffaa1116b5ccb19b",
      "blockNumber": "0x886865",
      "gasUsed": "0xc03a",
      "effectiveGasPrice": "0x9e90a17",
      "from": "0x36542e8ab1b2babc8bb34cba9af2d52de07e3ffd",
      "to": "0xa97e24478312cf237041dd4571618bd6fbaa7153",
      "contractAddress": null
    },
    {
      "status": "0x1",
      "cumulativeGasUsed": "0x82ebbb",
      "logs": [
        {
          "address": "0xa97e24478312cf237041dd4571618bd6fbaa7153",
          "topics": [
            "0x2f8788117e7eff1d82e926ec794901d17c78024a50270940304540a733656f0d",
            "0x2a5f906c256a5d799494fcd066e1f6c077689de1cdb65052a1624de4bace99bf",
            "0x00000000000000000000000036542e8ab1b2babc8bb34cba9af2d52de07e3ffd",
            "0x00000000000000000000000036542e8ab1b2babc8bb34cba9af2d52de07e3ffd"
          ],
          "data": "0x",
          "blockHash": "0xfa2cb55a00f3d659b9603206a99eb1f26eab410b4dff7d5a749c0c40aa0adf8d",
          "blockNumber": "0x886866",
          "transactionHash": "0xb96a73248884c0794718b39cb1a5626b162407b3aae44c5acdf561ef5ef5b3ae",
          "transactionIndex": "0x62",
          "logIndex": "0xaa",
          "removed": false
        }
      ],
      "logsBloom": "0x00000004000000000000000000000000000000000000000000000000000000000000000000000000000000000000000001000000000000040000000000000000000000000000000000000000000000000000000000000000000000000000000000000000000000002000000000000000000000000000000000000000000000000000000002000000000000000000000000000000000000000000000000400000000000000000000000000000000000000000000000000000001000000000000000000000000000000000000000000000000000000010000100000000000000000000000000000000000000000000000400000000000000000400400000000000",
      "type": "0x2",
      "transactionHash": "0xb96a73248884c0794718b39cb1a5626b162407b3aae44c5acdf561ef5ef5b3ae",
      "transactionIndex": "0x62",
      "blockHash": "0xfa2cb55a00f3d659b9603206a99eb1f26eab410b4dff7d5a749c0c40aa0adf8d",
      "blockNumber": "0x886866",
      "gasUsed": "0xc04e",
      "effectiveGasPrice": "0x94721af",
      "from": "0x36542e8ab1b2babc8bb34cba9af2d52de07e3ffd",
      "to": "0xa97e24478312cf237041dd4571618bd6fbaa7153",
      "contractAddress": null
    },
    {
      "status": "0x1",
      "cumulativeGasUsed": "0x8354c2",
      "logs": [],
      "logsBloom": "0x00000000000000000000000000000000000000000000000000000000000000000000000000000000000000000000000000000000000000000000000000000000000000000000000000000000000000000000000000000000000000000000000000000000000000000000000000000000000000000000000000000000000000000000000000000000000000000000000000000000000000000000000000000000000000000000000000000000000000000000000000000000000000000000000000000000000000000000000000000000000000000000000000000000000000000000000000000000000000000000000000000000000000000000000000000000",
      "type": "0x2",
      "transactionHash": "0x41e74efc5c20bc9ae0301682c4ced6b582c0336f610068c420801ac64f90ee82",
      "transactionIndex": "0x63",
      "blockHash": "0xfa2cb55a00f3d659b9603206a99eb1f26eab410b4dff7d5a749c0c40aa0adf8d",
      "blockNumber": "0x886866",
      "gasUsed": "0x6907",
      "effectiveGasPrice": "0x94721af",
      "from": "0x36542e8ab1b2babc8bb34cba9af2d52de07e3ffd",
      "to": "0xa97e24478312cf237041dd4571618bd6fbaa7153",
      "contractAddress": null
    }
  ],
  "libraries": [],
  "pending": [],
  "returns": {},
  "timestamp": 1754656465,
  "chain": 11155111,
  "commit": null
}