{
  "transactions": [
    {
      "hash": "0xe839076f30d7382db2545c89c8181ebcd5dacbf9d49b6774f209a0eb8963a558",
      "transactionType": "CALL",
      "contractName": null,
      "contractAddress": "0x7590d3c7e18578a8237094241293670078538e90",
      "function": "grantManufacturerRole(address)",
      "arguments": [
        "0x36542e8ab1B2babc8Bb34CbA9aF2D52de07E3FfD"
      ],
      "transaction": {
        "from": "0x36542e8ab1b2babc8bb34cba9af2d52de07e3ffd",
        "to": "0x7590d3c7e18578a8237094241293670078538e90",
        "gas": "0x1189f",
        "value": "0x0",
        "input": "0x55c4281e00000000000000000000000036542e8ab1b2babc8bb34cba9af2d52de07e3ffd",
        "nonce": "0x7",
        "chainId": "0xaa36a7"
      },
      "additionalContracts": [],
      "isFixedGasLimit": false
    },
    {
      "hash": "0xd893a38a1f735450016abe4f6ac040ea7c5fbba86a10b6df69d3d5a1b689511e",
      "transactionType": "CALL",
      "contractName": null,
      "contractAddress": "0x7590d3c7e18578a8237094241293670078538e90",
      "function": "grantManufacturerRole(address)",
      "arguments": [
        "0x36542e8ab1B2babc8Bb34CbA9aF2D52de07E3FfD"
      ],
      "transaction": {
        "from": "0x36542e8ab1b2babc8bb34cba9af2d52de07e3ffd",
        "to": "0x7590d3c7e18578a8237094241293670078538e90",
        "gas": "0x9936",
        "value": "0x0",
        "input": "0x55c4281e00000000000000000000000036542e8ab1b2babc8bb34cba9af2d52de07e3ffd",
        "nonce": "0x8",
        "chainId": "0xaa36a7"
      },
      "additionalContracts": [],
      "isFixedGasLimit": false
    },
    {
      "hash": "0xd03b24bd6d95e023e42be7ec9c352c3c8e8875f2eb9930262e17ac8156dfde97",
      "transactionType": "CALL",
      "contractName": null,
      "contractAddress": "0x7590d3c7e18578a8237094241293670078538e90",
      "function": "grantDistributorRole(address)",
      "arguments": [
        "0x36542e8ab1B2babc8Bb34CbA9aF2D52de07E3FfD"
      ],
      "transaction": {
        "from": "0x36542e8ab1b2babc8bb34cba9af2d52de07e3ffd",
        "to": "0x7590d3c7e18578a8237094241293670078538e90",
        "gas": "0x11921",
        "value": "0x0",
        "input": "0x8bba2a0a00000000000000000000000036542e8ab1b2babc8bb34cba9af2d52de07e3ffd",
        "nonce": "0x9",
        "chainId": "0xaa36a7"
      },
      "additionalContracts": [],
      "isFixedGasLimit": false
    },
    {
      "hash": "0xe4ed76217c3a0c37ed755f687416f7fd7c59e39f9a1c94d4c262b7e40d63ca43",
      "transactionType": "CALL",
      "contractName": null,
      "contractAddress": "0x7590d3c7e18578a8237094241293670078538e90",
      "function": "grantRetailerRole(address)",
      "arguments": [
        "0x36542e8ab1B2babc8Bb34CbA9aF2D52de07E3FfD"
      ],
      "transaction": {
        "from": "0x36542e8ab1b2babc8bb34cba9af2d52de07e3ffd",
        "to": "0x7590d3c7e18578a8237094241293670078538e90",
        "gas": "0x1099d",
        "value": "0x0",
        "input": "0xf9f806e100000000000000000000000036542e8ab1b2babc8bb34cba9af2d52de07e3ffd",
        "nonce": "0xa",
        "chainId": "0xaa36a7"
      },
      "additionalContracts": [],
      "isFixedGasLimit": false
    },
    {
      "hash": "0xaee0f34e4c9039881b9b627b1f389736710f34c9991cdae7b465563183a39081",
      "transactionType": "CALL",
      "contractName": null,
      "contractAddress": "0x7590d3c7e18578a8237094241293670078538e90",
      "function": "grantCustomsRole(address)",
      "arguments": [
        "0x36542e8ab1B2babc8Bb34CbA9aF2D52de07E3FfD"
      ],
      "transaction": {
        "from": "0x36542e8ab1b2babc8bb34cba9af2d52de07e3ffd",
        "to": "0x7590d3c7e18578a8237094241293670078538e90",
        "gas": "0x9111",
        "value": "0x0",
        "input": "0x0ea5ef3d00000000000000000000000036542e8ab1b2babc8bb34cba9af2d52de07e3ffd",
        "nonce": "0xb",
        "chainId": "0xaa36a7"
      },
      "additionalContracts": [],
      "isFixedGasLimit": false
    }
  ],
  "receipts": [
    {
      "status": "0x1",
      "cumulativeGasUsed": "0x38d61ff",
      "logs": [
        {
          "address": "0x7590d3c7e18578a8237094241293670078538e90",
          "topics": [
            "0x2f8788117e7eff1d82e926ec794901d17c78024a50270940304540a733656f0d",
            "0xeefb95e842a3287179d933b4460be539a1d5af11aa8b325bb45c5c8dc92de4ed",
            "0x00000000000000000000000036542e8ab1b2babc8bb34cba9af2d52de07e3ffd",
            "0x00000000000000000000000036542e8ab1b2babc8bb34cba9af2d52de07e3ffd"
          ],
          "data": "0x",
          "blockHash": "0xdf8932e77736fa379cbdf5a33ef5a5e799670617afde43b82f9775737fcd7662",
          "blockNumber": "0x8867f5",
          "transactionHash": "0xe839076f30d7382db2545c89c8181ebcd5dacbf9d49b6774f209a0eb8963a558",
          "transactionIndex": "0x4f9",
          "logIndex": "0xfd",
          "removed": false
        }
      ],
      "logsBloom": "0x00000004000000000000002000000000000000000000000000000000000000000000000000000000080000200002000000000000000000000000000000000000000000000000000000000000000000000000000000000000000000000000000000000000000000002002000000000000000000000000000000000000000000000000000002000000000000000000000000000000000000000000000000000000000000000000000000000000000000000000000000000000001000000000000000000000000000000000000000000000000000000000000100000000000000000000000000000000000000000000000000000000000000080000400000000000",
      "type": "0x2",
      "transactionHash": "0xe839076f30d7382db2545c89c8181ebcd5dacbf9d49b6774f209a0eb8963a558",
      "transactionIndex": "0x4f9",
      "blockHash": "0xdf8932e77736fa379cbdf5a33ef5a5e799670617afde43b82f9775737fcd7662",
      "blockNumber": "0x8867f5",
      "gasUsed": "0xbfe1",
      "effectiveGasPrice": "0x5c76256",
      "from": "0x36542e8ab1b2babc8bb34cba9af2d52de07e3ffd",
      "to": "0x7590d3c7e18578a8237094241293670078538e90",
      "contractAddress": null
    },
    {
      "status": "0x1",
      "cumulativeGasUsed": "0x38dcac2",
      "logs": [],
      "logsBloom": "0x00000000000000000000000000000000000000000000000000000000000000000000000000000000000000000000000000000000000000000000000000000000000000000000000000000000000000000000000000000000000000000000000000000000000000000000000000000000000000000000000000000000000000000000000000000000000000000000000000000000000000000000000000000000000000000000000000000000000000000000000000000000000000000000000000000000000000000000000000000000000000000000000000000000000000000000000000000000000000000000000000000000000000000000000000000000",
      "type": "0x2",
      "transactionHash": "0xd893a38a1f735450016abe4f6ac040ea7c5fbba86a10b6df69d3d5a1b689511e",
      "transactionIndex": "0x4fa",
      "blockHash": "0xdf8932e77736fa379cbdf5a33ef5a5e799670617afde43b82f9775737fcd7662",
      "blockNumber": "0x8867f5",
      "gasUsed": "0x68c3",
      "effectiveGasPrice": "0x5c76256",
      "from": "0x36542e8ab1b2babc8bb34cba9af2d52de07e3ffd",
      "to": "0x7590d3c7e18578a8237094241293670078538e90",
      "contractAddress": null
    },
    {
      "status": "0x1",
      "cumulativeGasUsed": "0x38e8afc",
      "logs": [
        {
          "address": "0x7590d3c7e18578a8237094241293670078538e90",
          "topics": [
            "0x2f8788117e7eff1d82e926ec794901d17c78024a50270940304540a733656f0d",
            "0xfbd454f36a7e1a388bd6fc3ab10d434aa4578f811acbbcf33afb1c697486313c",
            "0x00000000000000000000000036542e8ab1b2babc8bb34cba9af2d52de07e3ffd",
            "0x00000000000000000000000036542e8ab1b2babc8bb34cba9af2d52de07e3ffd"
          ],
          "data": "0x",
          "blockHash": "0xdf8932e77736fa379cbdf5a33ef5a5e799670617afde43b82f9775737fcd7662",
          "blockNumber": "0x8867f5",
          "transactionHash": "0xd03b24bd6d95e023e42be7ec9c352c3c8e8875f2eb9930262e17ac8156dfde97",
          "transactionIndex": "0x4fb",
          "logIndex": "0xfe",
          "removed": false
        }
      ],
      "logsBloom": "0x00000004000000000000000000000000000000000000000000000000000000000000000000000000080000000002000000000000000000000000000000000000000000000000000000008000000000000000000000000000000000000000000000000000000000002002000000000000000000000000000000000000000000000000000002000000000000000000000080000000000000000000000000000000000000000000000000000000000000000000000000000000001000000000000000000000000000000000000000000004000000000000000100000000000000000000000000000000000000000000000000000000000000000000400000000000",
      "type": "0x2",
      "transactionHash": "0xd03b24bd6d95e023e42be7ec9c352c3c8e8875f2eb9930262e17ac8156dfde97",
      "transactionIndex": "0x4fb",
      "blockHash": "0xdf8932e77736fa379cbdf5a33ef5a5e799670617afde43b82f9775737fcd7662",
      "blockNumber": "0x8867f5",
      "gasUsed": "0xc03a",
      "effectiveGasPrice": "0x5c76256",
      "from": "0x36542e8ab1b2babc8bb34cba9af2d52de07e3ffd",
      "to": "0x7590d3c7e18578a8237094241293670078538e90",
      "contractAddress": null
    },
    {
      "status": "0x1",
      "cumulativeGasUsed": "0x38f4b4a",
      "logs": [
        {
          "address": "0x7590d3c7e18578a8237094241293670078538e90",
          "topics": [
            "0x2f8788117e7eff1d82e926ec794901d17c78024a50270940304540a733656f0d",
            "0x2a5f906c256a5d799494fcd066e1f6c077689de1cdb65052a1624de4bace99bf",
            "0x00000000000000000000000036542e8ab1b2babc8bb34cba9af2d52de07e3ffd",
            "0x00000000000000000000000036542e8ab1b2babc8bb34cba9af2d52de07e3ffd"
          ],
          "data": "0x",
          "blockHash": "0xdf8932e77736fa379cbdf5a33ef5a5e799670617afde43b82f9775737fcd7662",
          "blockNumber": "0x8867f5",
          "transactionHash": "0xe4ed76217c3a0c37ed755f687416f7fd7c59e39f9a1c94d4c262b7e40d63ca43",
          "transactionIndex": "0x4fc",
          "logIndex": "0xff",
          "removed": false
        }
      ],
      "logsBloom": "0x00000004000000000000000000000000000000000000000000000000000000000000000000000000080000000002000001000000000000040000000000000000000000000000000000000000000000000000000000000000000000000000000000000000000000002002000000000000000000000000000000000000000000000000000002000000000000000000000000000000000000000000000000000000000000000000000000000000000000000000000000000000001000000000000000000000000000000000000000000000000000000010000100000000000000000000000000000000000000000000000000000000000000000000400000000000",
      "type": "0x2",
      "transactionHash": "0xe4ed76217c3a0c37ed755f687416f7fd7c59e39f9a1c94d4c262b7e40d63ca43",
      "transactionIndex": "0x4fc",
      "blockHash": "0xdf8932e77736fa379cbdf5a33ef5a5e799670617afde43b82f9775737fcd7662",
      "blockNumber": "0x8867f5",
      "gasUsed": "0xc04e",
      "effectiveGasPrice": "0x5c76256",
      "from": "0x36542e8ab1b2babc8bb34cba9af2d52de07e3ffd",
      "to": "0x7590d3c7e18578a8237094241293670078538e90",
      "contractAddress": null
    },
    {
      "status": "0x1",
      "cumulativeGasUsed": "0x38fb451",
      "logs": [],
      "logsBloom": "0x00000000000000000000000000000000000000000000000000000000000000000000000000000000000000000000000000000000000000000000000000000000000000000000000000000000000000000000000000000000000000000000000000000000000000000000000000000000000000000000000000000000000000000000000000000000000000000000000000000000000000000000000000000000000000000000000000000000000000000000000000000000000000000000000000000000000000000000000000000000000000000000000000000000000000000000000000000000000000000000000000000000000000000000000000000000",
      "type": "0x2",
      "transactionHash": "0xaee0f34e4c9039881b9b627b1f389736710f34c9991cdae7b465563183a39081",
      "transactionIndex": "0x4fd",
      "blockHash": "0xdf8932e77736fa379cbdf5a33ef5a5e799670617afde43b82f9775737fcd7662",
      "blockNumber": "0x8867f5",
      "gasUsed": "0x6907",
      "effectiveGasPrice": "0x5c76256",
      "from": "0x36542e8ab1b2babc8bb34cba9af2d52de07e3ffd",
      "to": "0x7590d3c7e18578a8237094241293670078538e90",
      "contractAddress": null
    }
  ],
  "libraries": [],
  "pending": [],
  "returns": {},
  "timestamp": 1754655110,
  "chain": 11155111,
  "commit": null
}