{
  "transactions": [
    {
      "hash": "0xda0766e18e9b67436daadb4307e01fe0ca96a3d4e5016c99622ff244b3a8f4c2",
      "transactionType": "CALL",
      "contractName": null,
      "contractAddress": "0xab74897eb9fdbe49eaa36ce4af700549303b22a2",
      "function": "grantManufacturerRole(address)",
      "arguments": [
        "0x36542e8ab1B2babc8Bb34CbA9aF2D52de07E3FfD"
      ],
      "transaction": {
        "from": "0x36542e8ab1b2babc8bb34cba9af2d52de07e3ffd",
        "to": "0xab74897eb9fdbe49eaa36ce4af700549303b22a2",
        "gas": "0x118ff",
        "value": "0x0",
        "input": "0x55c4281e00000000000000000000000036542e8ab1b2babc8bb34cba9af2d52de07e3ffd",
        "nonce": "0x1c",
        "chainId": "0xaa36a7"
      },
      "additionalContracts": [],
      "isFixedGasLimit": false
    },
    {
      "hash": "0xb890ed2af2b8b3743b4f6c3cbc5a1ef4230cae6d941d8fd396fc8106a6478159",
      "transactionType": "CALL",
      "contractName": null,
      "contractAddress": "0xab74897eb9fdbe49eaa36ce4af700549303b22a2",
      "function": "grantManufacturerRole(address)",
      "arguments": [
        "0x36542e8ab1B2babc8Bb34CbA9aF2D52de07E3FfD"
      ],
      "transaction": {
        "from": "0x36542e8ab1b2babc8bb34cba9af2d52de07e3ffd",
        "to": "0xab74897eb9fdbe49eaa36ce4af700549303b22a2",
        "gas": "0x910e",
        "value": "0x0",
        "input": "0x55c4281e00000000000000000000000036542e8ab1b2babc8bb34cba9af2d52de07e3ffd",
        "nonce": "0x1d",
        "chainId": "0xaa36a7"
      },
      "additionalContracts": [],
      "isFixedGasLimit": false
    },
    {
      "hash": "0x33e96dcdfed115dd4f47ea6be388dcb48230fb2b348cb89fa95ad06620a28909",
      "transactionType": "CALL",
      "contractName": null,
      "contractAddress": "0xab74897eb9fdbe49eaa36ce4af700549303b22a2",
      "function": "grantDistributorRole(address)",
      "arguments": [
        "0x36542e8ab1B2babc8Bb34CbA9aF2D52de07E3FfD"
      ],
      "transaction": {
        "from": "0x36542e8ab1b2babc8bb34cba9af2d52de07e3ffd",
        "to": "0xab74897eb9fdbe49eaa36ce4af700549303b22a2",
        "gas": "0x1189f",
        "value": "0x0",
        "input": "0x8bba2a0a00000000000000000000000036542e8ab1b2babc8bb34cba9af2d52de07e3ffd",
        "nonce": "0x1e",
        "chainId": "0xaa36a7"
      },
      "additionalContracts": [],
      "isFixedGasLimit": false
    },
    {
      "hash": "0x3606cfdf3b7db219502b774e8ca0c3c707b72b8b290182faf2fb0cd3a90c9e6a",
      "transactionType": "CALL",
      "contractName": null,
      "contractAddress": "0xab74897eb9fdbe49eaa36ce4af700549303b22a2",
      "function": "grantRetailerRole(address)",
      "arguments": [
        "0x36542e8ab1B2babc8Bb34CbA9aF2D52de07E3FfD"
      ],
      "transaction": {
        "from": "0x36542e8ab1b2babc8bb34cba9af2d52de07e3ffd",
        "to": "0xab74897eb9fdbe49eaa36ce4af700549303b22a2",
        "gas": "0x1097f",
        "value": "0x0",
        "input": "0xf9f806e100000000000000000000000036542e8ab1b2babc8bb34cba9af2d52de07e3ffd",
        "nonce": "0x1f",
        "chainId": "0xaa36a7"
      },
      "additionalContracts": [],
      "isFixedGasLimit": false
    },
    {
      "hash": "0x2a741bdadaea3c798b403218465d82897d2e59f3f576f69492a1f720c1956d0d",
      "transactionType": "CALL",
      "contractName": null,
      "contractAddress": "0xab74897eb9fdbe49eaa36ce4af700549303b22a2",
      "function": "grantCustomsRole(address)",
      "arguments": [
        "0x36542e8ab1B2babc8Bb34CbA9aF2D52de07E3FfD"
      ],
      "transaction": {
        "from": "0x36542e8ab1b2babc8bb34cba9af2d52de07e3ffd",
        "to": "0xab74897eb9fdbe49eaa36ce4af700549303b22a2",
        "gas": "0x9111",
        "value": "0x0",
        "input": "0x0ea5ef3d00000000000000000000000036542e8ab1b2babc8bb34cba9af2d52de07e3ffd",
        "nonce": "0x20",
        "chainId": "0xaa36a7"
      },
      "additionalContracts": [],
      "isFixedGasLimit": false
    }
  ],
  "receipts": [
    {
      "status": "0x1",
      "cumulativeGasUsed": "0x11f2c8f",
      "logs": [
        {
          "address": "0xab74897eb9fdbe49eaa36ce4af700549303b22a2",
          "topics": [
            "0x2f8788117e7eff1d82e926ec794901d17c78024a50270940304540a733656f0d",
            "0xeefb95e842a3287179d933b4460be539a1d5af11aa8b325bb45c5c8dc92de4ed",
            "0x00000000000000000000000036542e8ab1b2babc8bb34cba9af2d52de07e3ffd",
            "0x00000000000000000000000036542e8ab1b2babc8bb34cba9af2d52de07e3ffd"
          ],
          "data": "0x",
          "blockHash": "0x0206a2ad382a4332114de5bd274ed061e80d06f651ce1a9751879e5e28c9235b",
          "blockNumber": "0x886b10",
          "transactionHash": "0xda0766e18e9b67436daadb4307e01fe0ca96a3d4e5016c99622ff244b3a8f4c2",
          "transactionIndex": "0x9a",
          "logIndex": "0x142",
          "removed": false
        }
      ],
      "logsBloom": "0x00000004000000000000002000000000000000000000000000000000000000000000000000004000000020200000000000000000000000000000000000000000000000000000000000000000000000000000000000000000000000000000000000000000000000002000000000000000000000000000000000000000000000000000000002000000000000000000000000000000000000000000000000000000000000000000000000000000000080000000000000000000001000000000000000000000000000000000000000000000000000000000000100000000000000000000000000000000000000000000000000000000000000080000400000000000",
      "type": "0x2",
      "transactionHash": "0xda0766e18e9b67436daadb4307e01fe0ca96a3d4e5016c99622ff244b3a8f4c2",
      "transactionIndex": "0x9a",
      "blockHash": "0x0206a2ad382a4332114de5bd274ed061e80d06f651ce1a9751879e5e28c9235b",
      "blockNumber": "0x886b10",
      "gasUsed": "0xc023",
      "effectiveGasPrice": "0xb723a9",
      "from": "0x36542e8ab1b2babc8bb34cba9af2d52de07e3ffd",
      "to": "0xab74897eb9fdbe49eaa36ce4af700549303b22a2",
      "contractAddress": null
    },
    {
      "status": "0x1",
      "cumulativeGasUsed": "0x11f9594",
      "logs": [],
      "logsBloom": "0x00000000000000000000000000000000000000000000000000000000000000000000000000000000000000000000000000000000000000000000000000000000000000000000000000000000000000000000000000000000000000000000000000000000000000000000000000000000000000000000000000000000000000000000000000000000000000000000000000000000000000000000000000000000000000000000000000000000000000000000000000000000000000000000000000000000000000000000000000000000000000000000000000000000000000000000000000000000000000000000000000000000000000000000000000000000",
      "type": "0x2",
      "transactionHash": "0xb890ed2af2b8b3743b4f6c3cbc5a1ef4230cae6d941d8fd396fc8106a6478159",
      "transactionIndex": "0x9b",
      "blockHash": "0x0206a2ad382a4332114de5bd274ed061e80d06f651ce1a9751879e5e28c9235b",
      "blockNumber": "0x886b10",
      "gasUsed": "0x6905",
      "effectiveGasPrice": "0xb723a9",
      "from": "0x36542e8ab1b2babc8bb34cba9af2d52de07e3ffd",
      "to": "0xab74897eb9fdbe49eaa36ce4af700549303b22a2",
      "contractAddress": null
    },
    {
      "status": "0x1",
      "cumulativeGasUsed": "0x1205575",
      "logs": [
        {
          "address": "0xab74897eb9fdbe49eaa36ce4af700549303b22a2",
          "topics": [
            "0x2f8788117e7eff1d82e926ec794901d17c78024a50270940304540a733656f0d",
            "0xfbd454f36a7e1a388bd6fc3ab10d434aa4578f811acbbcf33afb1c697486313c",
            "0x00000000000000000000000036542e8ab1b2babc8bb34cba9af2d52de07e3ffd",
            "0x00000000000000000000000036542e8ab1b2babc8bb34cba9af2d52de07e3ffd"
          ],
          "data": "0x",
          "blockHash": "0x0206a2ad382a4332114de5bd274ed061e80d06f651ce1a9751879e5e28c9235b",
          "blockNumber": "0x886b10",
          "transactionHash": "0x33e96dcdfed115dd4f47ea6be388dcb48230fb2b348cb89fa95ad06620a28909",
          "transactionIndex": "0x9c",
          "logIndex": "0x143",
          "removed": false
        }
      ],
      "logsBloom": "0x00000004000000000000000000000000000000000000000000000000000000000000000000004000000020000000000000000000000000000000000000000000000000000000000000008000000000000000000000000000000000000000000000000000000000002000000000000000000000000000000000000000000000000000000002000000000000000000000080000000000000000000000000000000000000000000000000000000000080000000000000000000001000000000000000000000000000000000000000000004000000000000000100000000000000000000000000000000000000000000000000000000000000000000400000000000",
      "type": "0x2",
      "transactionHash": "0x33e96dcdfed115dd4f47ea6be388dcb48230fb2b348cb89fa95ad06620a28909",
      "transactionIndex": "0x9c",
      "blockHash": "0x0206a2ad382a4332114de5bd274ed061e80d06f651ce1a9751879e5e28c9235b",
      "blockNumber": "0x886b10",
      "gasUsed": "0xbfe1",
      "effectiveGasPrice": "0xb723a9",
      "from": "0x36542e8ab1b2babc8bb34cba9af2d52de07e3ffd",
      "to": "0xab74897eb9fdbe49eaa36ce4af700549303b22a2",
      "contractAddress": null
    },
    {
      "status": "0x1",
      "cumulativeGasUsed": "0x12115ad",
      "logs": [
        {
          "address": "0xab74897eb9fdbe49eaa36ce4af700549303b22a2",
          "topics": [
            "0x2f8788117e7eff1d82e926ec794901d17c78024a50270940304540a733656f0d",
            "0x2a5f906c256a5d799494fcd066e1f6c077689de1cdb65052a1624de4bace99bf",
            "0x00000000000000000000000036542e8ab1b2babc8bb34cba9af2d52de07e3ffd",
            "0x00000000000000000000000036542e8ab1b2babc8bb34cba9af2d52de07e3ffd"
          ],
          "data": "0x",
          "blockHash": "0x0206a2ad382a4332114de5bd274ed061e80d06f651ce1a9751879e5e28c9235b",
          "blockNumber": "0x886b10",
          "transactionHash": "0x3606cfdf3b7db219502b774e8ca0c3c707b72b8b290182faf2fb0cd3a90c9e6a",
          "transactionIndex": "0x9d",
          "logIndex": "0x144",
          "removed": false
        }
      ],
      "logsBloom": "0x00000004000000000000000000000000000000000000000000000000000000000000000000004000000020000000000001000000000000040000000000000000000000000000000000000000000000000000000000000000000000000000000000000000000000002000000000000000000000000000000000000000000000000000000002000000000000000000000000000000000000000000000000000000000000000000000000000000000080000000000000000000001000000000000000000000000000000000000000000000000000000010000100000000000000000000000000000000000000000000000000000000000000000000400000000000",
      "type": "0x2",
      "transactionHash": "0x3606cfdf3b7db219502b774e8ca0c3c707b72b8b290182faf2fb0cd3a90c9e6a",
      "transactionIndex": "0x9d",
      "blockHash": "0x0206a2ad382a4332114de5bd274ed061e80d06f651ce1a9751879e5e28c9235b",
      "blockNumber": "0x886b10",
      "gasUsed": "0xc038",
      "effectiveGasPrice": "0xb723a9",
      "from": "0x36542e8ab1b2babc8bb34cba9af2d52de07e3ffd",
      "to": "0xab74897eb9fdbe49eaa36ce4af700549303b22a2",
      "contractAddress": null
    },
    {
      "status": "0x1",
      "cumulativeGasUsed": "0x1217eb4",
      "logs": [],
      "logsBloom": "0x00000000000000000000000000000000000000000000000000000000000000000000000000000000000000000000000000000000000000000000000000000000000000000000000000000000000000000000000000000000000000000000000000000000000000000000000000000000000000000000000000000000000000000000000000000000000000000000000000000000000000000000000000000000000000000000000000000000000000000000000000000000000000000000000000000000000000000000000000000000000000000000000000000000000000000000000000000000000000000000000000000000000000000000000000000000",
      "type": "0x2",
      "transactionHash": "0x2a741bdadaea3c798b403218465d82897d2e59f3f576f69492a1f720c1956d0d",
      "transactionIndex": "0x9e",
      "blockHash": "0x0206a2ad382a4332114de5bd274ed061e80d06f651ce1a9751879e5e28c9235b",
      "blockNumber": "0x886b10",
      "gasUsed": "0x6907",
      "effectiveGasPrice": "0xb723a9",
      "from": "0x36542e8ab1b2babc8bb34cba9af2d52de07e3ffd",
      "to": "0xab74897eb9fdbe49eaa36ce4af700549303b22a2",
      "contractAddress": null
    }
  ],
  "libraries": [],
  "pending": [],
  "returns": {},
  "timestamp": 1754674991,
  "chain": 11155111,
  "commit": null
}